{
  "contractName": "Crowdsale",
  "abi": [
    {
      "inputs": [
        {
          "internalType": "contract IERC20",
          "name": "_token",
          "type": "address"
        },
        {
          "internalType": "uint256",
          "name": "_start",
          "type": "uint256"
        },
        {
          "internalType": "uint256",
          "name": "_dead",
          "type": "uint256"
        },
        {
          "internalType": "uint256",
          "name": "_publish",
          "type": "uint256"
        }
      ],
      "stateMutability": "nonpayable",
      "type": "constructor"
    },
    {
      "anonymous": false,
      "inputs": [
        {
          "indexed": false,
          "internalType": "address",
          "name": "backer",
          "type": "address"
        },
        {
          "indexed": false,
          "internalType": "uint256",
          "name": "amount",
          "type": "uint256"
        },
        {
          "indexed": false,
          "internalType": "bool",
          "name": "isContribution",
          "type": "bool"
        },
        {
          "indexed": false,
          "internalType": "uint256",
          "name": "amountRaised",
          "type": "uint256"
        }
      ],
      "name": "FundTransfer",
      "type": "event"
    },
    {
      "anonymous": false,
      "inputs": [
        {
          "indexed": false,
          "internalType": "address",
          "name": "beneficiary",
          "type": "address"
        },
        {
          "indexed": false,
          "internalType": "uint256",
          "name": "amountRaised",
          "type": "uint256"
        }
      ],
      "name": "GoalReached",
      "type": "event"
    },
    {
      "anonymous": false,
      "inputs": [
        {
          "indexed": true,
          "internalType": "address",
          "name": "previousOwner",
          "type": "address"
        },
        {
          "indexed": true,
          "internalType": "address",
          "name": "newOwner",
          "type": "address"
        }
      ],
      "name": "OwnershipTransferred",
      "type": "event"
    },
    {
      "inputs": [],
      "name": "amountRaised",
      "outputs": [
        {
          "internalType": "uint256",
          "name": "",
          "type": "uint256"
        }
      ],
      "stateMutability": "view",
      "type": "function"
    },
    {
      "inputs": [],
      "name": "amountRaisedJNCK",
      "outputs": [
        {
          "internalType": "uint256",
          "name": "",
          "type": "uint256"
        }
      ],
      "stateMutability": "view",
      "type": "function"
    },
    {
      "inputs": [
        {
          "internalType": "address",
          "name": "",
          "type": "address"
        }
      ],
      "name": "balanceOf",
      "outputs": [
        {
          "internalType": "uint256",
          "name": "",
          "type": "uint256"
        }
      ],
      "stateMutability": "view",
      "type": "function"
    },
    {
      "inputs": [
        {
          "internalType": "address",
          "name": "",
          "type": "address"
        }
      ],
      "name": "balanceOfJNCK",
      "outputs": [
        {
          "internalType": "uint256",
          "name": "",
          "type": "uint256"
        }
      ],
      "stateMutability": "view",
      "type": "function"
    },
    {
      "inputs": [],
      "name": "deadline",
      "outputs": [
        {
          "internalType": "uint256",
          "name": "",
          "type": "uint256"
        }
      ],
      "stateMutability": "view",
      "type": "function"
    },
    {
      "inputs": [],
      "name": "owner",
      "outputs": [
        {
          "internalType": "address",
          "name": "",
          "type": "address"
        }
      ],
      "stateMutability": "view",
      "type": "function"
    },
    {
      "inputs": [],
      "name": "publishDate",
      "outputs": [
        {
          "internalType": "uint256",
          "name": "",
          "type": "uint256"
        }
      ],
      "stateMutability": "view",
      "type": "function"
    },
    {
      "inputs": [],
      "name": "renounceOwnership",
      "outputs": [],
      "stateMutability": "nonpayable",
      "type": "function"
    },
    {
      "inputs": [],
      "name": "saleClosed",
      "outputs": [
        {
          "internalType": "bool",
          "name": "",
          "type": "bool"
        }
      ],
      "stateMutability": "view",
      "type": "function"
    },
    {
      "inputs": [],
      "name": "start",
      "outputs": [
        {
          "internalType": "uint256",
          "name": "",
          "type": "uint256"
        }
      ],
      "stateMutability": "view",
      "type": "function"
    },
    {
      "inputs": [
        {
          "internalType": "address",
          "name": "newOwner",
          "type": "address"
        }
      ],
      "name": "transferOwnership",
      "outputs": [],
      "stateMutability": "nonpayable",
      "type": "function"
    },
    {
      "inputs": [
        {
          "internalType": "address",
          "name": "",
          "type": "address"
        }
      ],
      "name": "whitelist",
      "outputs": [
        {
          "internalType": "bool",
          "name": "",
          "type": "bool"
        }
      ],
      "stateMutability": "view",
      "type": "function"
    },
    {
      "stateMutability": "payable",
      "type": "receive"
    },
    {
      "inputs": [
        {
          "internalType": "uint256",
          "name": "_dead",
          "type": "uint256"
        },
        {
          "internalType": "uint256",
          "name": "_publish",
          "type": "uint256"
        }
      ],
      "name": "updateDeadline",
      "outputs": [],
      "stateMutability": "nonpayable",
      "type": "function"
    },
    {
      "inputs": [
        {
          "internalType": "address",
          "name": "addr",
          "type": "address"
        }
      ],
      "name": "checkFunds",
      "outputs": [
        {
          "internalType": "uint256",
          "name": "",
          "type": "uint256"
        }
      ],
      "stateMutability": "view",
      "type": "function"
    },
    {
      "inputs": [
        {
          "internalType": "address",
          "name": "addr",
          "type": "address"
        }
      ],
      "name": "checkJNCKFunds",
      "outputs": [
        {
          "internalType": "uint256",
          "name": "",
          "type": "uint256"
        }
      ],
      "stateMutability": "view",
      "type": "function"
    },
    {
      "inputs": [],
      "name": "getBNBBalance",
      "outputs": [
        {
          "internalType": "uint256",
          "name": "",
          "type": "uint256"
        }
      ],
      "stateMutability": "view",
      "type": "function"
    },
    {
      "inputs": [
        {
          "internalType": "address",
          "name": "addr",
          "type": "address"
        }
      ],
      "name": "isWhitelisted",
      "outputs": [
        {
          "internalType": "bool",
          "name": "",
          "type": "bool"
        }
      ],
      "stateMutability": "view",
      "type": "function"
    },
    {
      "inputs": [
        {
          "internalType": "address",
          "name": "addr",
          "type": "address"
        }
      ],
      "name": "addWhitelisted",
      "outputs": [],
      "stateMutability": "nonpayable",
      "type": "function"
    },
    {
      "inputs": [
        {
          "internalType": "address",
          "name": "addr",
          "type": "address"
        }
      ],
      "name": "removeWhitelisted",
      "outputs": [],
      "stateMutability": "nonpayable",
      "type": "function"
    },
    {
      "inputs": [],
      "name": "invest",
      "outputs": [],
      "stateMutability": "payable",
      "type": "function"
    },
    {
      "inputs": [],
      "name": "getJNCK",
      "outputs": [],
      "stateMutability": "nonpayable",
      "type": "function"
    },
    {
      "inputs": [],
      "name": "withdrawBNB",
      "outputs": [],
      "stateMutability": "nonpayable",
      "type": "function"
    },
    {
      "inputs": [],
      "name": "withdrawJNCK",
      "outputs": [],
      "stateMutability": "nonpayable",
      "type": "function"
    }
  ],
  "bytecode": "0x60806040526000600b60006101000a81548160ff0219169083151502179055503480156200002c57600080fd5b50604051620021fa380380620021fa83398181016040528101906200005291906200025e565b6200007262000066620000d960201b60201c565b620000e160201b60201c565b6001808190555083600760006101000a81548173ffffffffffffffffffffffffffffffffffffffff021916908373ffffffffffffffffffffffffffffffffffffffff16021790555082600481905550816005819055508060068190555050505050620002d0565b600033905090565b60008060009054906101000a900473ffffffffffffffffffffffffffffffffffffffff169050816000806101000a81548173ffffffffffffffffffffffffffffffffffffffff021916908373ffffffffffffffffffffffffffffffffffffffff1602179055508173ffffffffffffffffffffffffffffffffffffffff168173ffffffffffffffffffffffffffffffffffffffff167f8be0079c531659141344cd1fd0a4f28419497f9722a3daafe3b4186f6b6457e060405160405180910390a35050565b600080fd5b600073ffffffffffffffffffffffffffffffffffffffff82169050919050565b6000620001d782620001aa565b9050919050565b6000620001eb82620001ca565b9050919050565b620001fd81620001de565b81146200020957600080fd5b50565b6000815190506200021d81620001f2565b92915050565b6000819050919050565b620002388162000223565b81146200024457600080fd5b50565b60008151905062000258816200022d565b92915050565b600080600080608085870312156200027b576200027a620001a5565b5b60006200028b878288016200020c565b94505060206200029e8782880162000247565b9350506040620002b18782880162000247565b9250506060620002c48782880162000247565b91505092959194509250565b611f1a80620002e06000396000f3fe6080604052600436106101445760003560e01c8063899b184f116100b6578063b8c766b81161006f578063b8c766b81461047b578063be9a6555146104a6578063e6d54204146104d1578063e8b5e51f1461050e578063f2fde38b14610518578063f89879aa1461054157610197565b8063899b184f146103915780638d5666d0146103ba5780638da5cb5b146103e55780638db2c5a9146104105780639b19251a14610427578063ae948eed1461046457610197565b80633af32abf116101085780633af32abf1461026d578063676e44bd146102aa57806370a08231146102d5578063715018a61461031257806379eaceb9146103295780637b3e5e7b1461036657610197565b806310154bad1461019c5780631d111d13146101c5578063291d9549146101dc57806329dcb0cf1461020557806336938f411461023057610197565b366101975761015161056c565b73ffffffffffffffffffffffffffffffffffffffff163373ffffffffffffffffffffffffffffffffffffffff16146101905761018b610595565b610195565b600080fd5b005b600080fd5b3480156101a857600080fd5b506101c360048036038101906101be9190611688565b6109ae565b005b3480156101d157600080fd5b506101da610a85565b005b3480156101e857600080fd5b5061020360048036038101906101fe9190611688565b610ba0565b005b34801561021157600080fd5b5061021a610c77565b60405161022791906116ce565b60405180910390f35b34801561023c57600080fd5b5061025760048036038101906102529190611688565b610c7d565b60405161026491906116ce565b60405180910390f35b34801561027957600080fd5b50610294600480360381019061028f9190611688565b610cc6565b6040516102a19190611704565b60405180910390f35b3480156102b657600080fd5b506102bf610d1c565b6040516102cc91906116ce565b60405180910390f35b3480156102e157600080fd5b506102fc60048036038101906102f79190611688565b610d22565b60405161030991906116ce565b60405180910390f35b34801561031e57600080fd5b50610327610d3a565b005b34801561033557600080fd5b50610350600480360381019061034b9190611688565b610dc2565b60405161035d91906116ce565b60405180910390f35b34801561037257600080fd5b5061037b610e0b565b60405161038891906116ce565b60405180910390f35b34801561039d57600080fd5b506103b860048036038101906103b3919061174b565b610e11565b005b3480156103c657600080fd5b506103cf610e9f565b6040516103dc91906116ce565b60405180910390f35b3480156103f157600080fd5b506103fa61056c565b604051610407919061179a565b60405180910390f35b34801561041c57600080fd5b50610425610ea5565b005b34801561043357600080fd5b5061044e60048036038101906104499190611688565b6111d2565b60405161045b9190611704565b60405180910390f35b34801561047057600080fd5b506104796111f2565b005b34801561048757600080fd5b506104906113fc565b60405161049d9190611704565b60405180910390f35b3480156104b257600080fd5b506104bb61140f565b6040516104c891906116ce565b60405180910390f35b3480156104dd57600080fd5b506104f860048036038101906104f39190611688565b611415565b60405161050591906116ce565b60405180910390f35b610516610595565b005b34801561052457600080fd5b5061053f600480360381019061053a9190611688565b61142d565b005b34801561054d57600080fd5b50610556611525565b60405161056391906116ce565b60405180910390f35b60008060009054906101000a900473ffffffffffffffffffffffffffffffffffffffff16905090565b60011515600a60006105a561152d565b73ffffffffffffffffffffffffffffffffffffffff1673ffffffffffffffffffffffffffffffffffffffff16815260200190815260200160002060009054906101000a900460ff1615151461062f576040517f08c379a000000000000000000000000000000000000000000000000000000000815260040161062690611812565b60405180910390fd5b600034905060001515600b60009054906101000a900460ff16151514801561065957506004544210155b8015610666575060055442105b6106a5576040517f08c379a000000000000000000000000000000000000000000000000000000000815260040161069c9061187e565b60405180910390fd5b67016345785d8a00003410156106f0576040517f08c379a00000000000000000000000000000000000000000000000000000000081526004016106e7906118ea565b60405180910390fd5b61074281600860003373ffffffffffffffffffffffffffffffffffffffff1673ffffffffffffffffffffffffffffffffffffffff1681526020019081526020016000205461153590919063ffffffff16565b600860003373ffffffffffffffffffffffffffffffffffffffff1673ffffffffffffffffffffffffffffffffffffffff16815260200190815260200160002081905550674563918244f40000600860003373ffffffffffffffffffffffffffffffffffffffff1673ffffffffffffffffffffffffffffffffffffffff16815260200190815260200160002054111561080f576040517f08c379a000000000000000000000000000000000000000000000000000000000815260040161080690611956565b60405180910390fd5b6108248160025461153590919063ffffffff16565b600281905550610890610842615ac68361154b90919063ffffffff16565b600960003373ffffffffffffffffffffffffffffffffffffffff1673ffffffffffffffffffffffffffffffffffffffff1681526020019081526020016000205461153590919063ffffffff16565b600960003373ffffffffffffffffffffffffffffffffffffffff1673ffffffffffffffffffffffffffffffffffffffff168152602001908152602001600020819055506108fc6108eb615ac68361154b90919063ffffffff16565b60035461153590919063ffffffff16565b600381905550682ba39e82ed5d7400006002541061096b576001600b60006101000a81548160ff0219169083151502179055507fec3f991caf7857d61663fd1bba1739e04abd4781238508cde554bb849d790c8533600254604051610962929190611976565b60405180910390a15b7f1673f758ed3beff5e37b51f770fd638a812bade2568f15526a4f5b33945c9363338260016002546040516109a3949392919061199f565b60405180910390a150565b6109b661152d565b73ffffffffffffffffffffffffffffffffffffffff166109d461056c565b73ffffffffffffffffffffffffffffffffffffffff1614610a2a576040517f08c379a0000000000000000000000000000000000000000000000000000000008152600401610a2190611a30565b60405180910390fd5b6001600a60008373ffffffffffffffffffffffffffffffffffffffff1673ffffffffffffffffffffffffffffffffffffffff16815260200190815260200160002060006101000a81548160ff02191690831515021790555050565b610a8d61152d565b73ffffffffffffffffffffffffffffffffffffffff16610aab61056c565b73ffffffffffffffffffffffffffffffffffffffff1614610b01576040517f08c379a0000000000000000000000000000000000000000000000000000000008152600401610af890611a30565b60405180910390fd5b600047905060008111610b49576040517f08c379a0000000000000000000000000000000000000000000000000000000008152600401610b4090611a9c565b60405180910390fd5b6000610b5361056c565b90508073ffffffffffffffffffffffffffffffffffffffff166108fc839081150290604051600060405180830381858888f19350505050158015610b9b573d6000803e3d6000fd5b505050565b610ba861152d565b73ffffffffffffffffffffffffffffffffffffffff16610bc661056c565b73ffffffffffffffffffffffffffffffffffffffff1614610c1c576040517f08c379a0000000000000000000000000000000000000000000000000000000008152600401610c1390611a30565b60405180910390fd5b6000600a60008373ffffffffffffffffffffffffffffffffffffffff1673ffffffffffffffffffffffffffffffffffffffff16815260200190815260200160002060006101000a81548160ff02191690831515021790555050565b60055481565b6000600860008373ffffffffffffffffffffffffffffffffffffffff1673ffffffffffffffffffffffffffffffffffffffff168152602001908152602001600020549050919050565b6000600a60008373ffffffffffffffffffffffffffffffffffffffff1673ffffffffffffffffffffffffffffffffffffffff16815260200190815260200160002060009054906101000a900460ff169050919050565b60065481565b60086020528060005260406000206000915090505481565b610d4261152d565b73ffffffffffffffffffffffffffffffffffffffff16610d6061056c565b73ffffffffffffffffffffffffffffffffffffffff1614610db6576040517f08c379a0000000000000000000000000000000000000000000000000000000008152600401610dad90611a30565b60405180910390fd5b610dc06000611561565b565b6000600960008373ffffffffffffffffffffffffffffffffffffffff1673ffffffffffffffffffffffffffffffffffffffff168152602001908152602001600020549050919050565b60025481565b610e1961152d565b73ffffffffffffffffffffffffffffffffffffffff16610e3761056c565b73ffffffffffffffffffffffffffffffffffffffff1614610e8d576040517f08c379a0000000000000000000000000000000000000000000000000000000008152600401610e8490611a30565b60405180910390fd5b81600581905550806006819055505050565b60035481565b600654421015610eea576040517f08c379a0000000000000000000000000000000000000000000000000000000008152600401610ee190611b08565b60405180910390fd5b60026001541415610f30576040517f08c379a0000000000000000000000000000000000000000000000000000000008152600401610f2790611b74565b60405180910390fd5b60026001819055506000600960003373ffffffffffffffffffffffffffffffffffffffff1673ffffffffffffffffffffffffffffffffffffffff1681526020019081526020016000205411610fba576040517f08c379a0000000000000000000000000000000000000000000000000000000008152600401610fb190611be0565b60405180910390fd5b6000600960003373ffffffffffffffffffffffffffffffffffffffff1673ffffffffffffffffffffffffffffffffffffffff1681526020019081526020016000205490506000600760009054906101000a900473ffffffffffffffffffffffffffffffffffffffff1673ffffffffffffffffffffffffffffffffffffffff166370a08231306040518263ffffffff1660e01b815260040161105b919061179a565b602060405180830381865afa158015611078573d6000803e3d6000fd5b505050506040513d601f19601f8201168201806040525081019061109c9190611c15565b9050818110156110e1576040517f08c379a00000000000000000000000000000000000000000000000000000000081526004016110d890611c8e565b60405180910390fd5b6000600960003373ffffffffffffffffffffffffffffffffffffffff1673ffffffffffffffffffffffffffffffffffffffff16815260200190815260200160002081905550600760009054906101000a900473ffffffffffffffffffffffffffffffffffffffff1673ffffffffffffffffffffffffffffffffffffffff1663a9059cbb33846040518363ffffffff1660e01b8152600401611183929190611976565b6020604051808303816000875af11580156111a2573d6000803e3d6000fd5b505050506040513d601f19601f820116820180604052508101906111c69190611cda565b50505060018081905550565b600a6020528060005260406000206000915054906101000a900460ff1681565b6111fa61152d565b73ffffffffffffffffffffffffffffffffffffffff1661121861056c565b73ffffffffffffffffffffffffffffffffffffffff161461126e576040517f08c379a000000000000000000000000000000000000000000000000000000000815260040161126590611a30565b60405180910390fd5b6000600760009054906101000a900473ffffffffffffffffffffffffffffffffffffffff1673ffffffffffffffffffffffffffffffffffffffff166370a08231306040518263ffffffff1660e01b81526004016112cb919061179a565b602060405180830381865afa1580156112e8573d6000803e3d6000fd5b505050506040513d601f19601f8201168201806040525081019061130c9190611c15565b905060008111611351576040517f08c379a000000000000000000000000000000000000000000000000000000000815260040161134890611d53565b60405180910390fd5b600760009054906101000a900473ffffffffffffffffffffffffffffffffffffffff1673ffffffffffffffffffffffffffffffffffffffff1663a9059cbb61139761056c565b836040518363ffffffff1660e01b81526004016113b5929190611976565b6020604051808303816000875af11580156113d4573d6000803e3d6000fd5b505050506040513d601f19601f820116820180604052508101906113f89190611cda565b5050565b600b60009054906101000a900460ff1681565b60045481565b60096020528060005260406000206000915090505481565b61143561152d565b73ffffffffffffffffffffffffffffffffffffffff1661145361056c565b73ffffffffffffffffffffffffffffffffffffffff16146114a9576040517f08c379a00000000000000000000000000000000000000000000000000000000081526004016114a090611a30565b60405180910390fd5b600073ffffffffffffffffffffffffffffffffffffffff168173ffffffffffffffffffffffffffffffffffffffff161415611519576040517f08c379a000000000000000000000000000000000000000000000000000000000815260040161151090611de5565b60405180910390fd5b61152281611561565b50565b600047905090565b600033905090565b600081836115439190611e34565b905092915050565b600081836115599190611e8a565b905092915050565b60008060009054906101000a900473ffffffffffffffffffffffffffffffffffffffff169050816000806101000a81548173ffffffffffffffffffffffffffffffffffffffff021916908373ffffffffffffffffffffffffffffffffffffffff1602179055508173ffffffffffffffffffffffffffffffffffffffff168173ffffffffffffffffffffffffffffffffffffffff167f8be0079c531659141344cd1fd0a4f28419497f9722a3daafe3b4186f6b6457e060405160405180910390a35050565b600080fd5b600073ffffffffffffffffffffffffffffffffffffffff82169050919050565b60006116558261162a565b9050919050565b6116658161164a565b811461167057600080fd5b50565b6000813590506116828161165c565b92915050565b60006020828403121561169e5761169d611625565b5b60006116ac84828501611673565b91505092915050565b6000819050919050565b6116c8816116b5565b82525050565b60006020820190506116e360008301846116bf565b92915050565b60008115159050919050565b6116fe816116e9565b82525050565b600060208201905061171960008301846116f5565b92915050565b611728816116b5565b811461173357600080fd5b50565b6000813590506117458161171f565b92915050565b6000806040838503121561176257611761611625565b5b600061177085828601611736565b925050602061178185828601611736565b9150509250929050565b6117948161164a565b82525050565b60006020820190506117af600083018461178b565b92915050565b600082825260208201905092915050565b7f43616c6c6572206973206e6f742077686974656c697374656400000000000000600082015250565b60006117fc6019836117b5565b9150611807826117c6565b602082019050919050565b6000602082019050818103600083015261182b816117ef565b9050919050565b7f73616c652d636c6f736564000000000000000000000000000000000000000000600082015250565b6000611868600b836117b5565b915061187382611832565b602082019050919050565b600060208201905081810360008301526118978161185b565b9050919050565b7f6c657373207468616e20302e3120424e42000000000000000000000000000000600082015250565b60006118d46011836117b5565b91506118df8261189e565b602082019050919050565b60006020820190508181036000830152611903816118c7565b9050919050565b7f6d6f7265207468616e203520424e420000000000000000000000000000000000600082015250565b6000611940600f836117b5565b915061194b8261190a565b602082019050919050565b6000602082019050818103600083015261196f81611933565b9050919050565b600060408201905061198b600083018561178b565b61199860208301846116bf565b9392505050565b60006080820190506119b4600083018761178b565b6119c160208301866116bf565b6119ce60408301856116f5565b6119db60608301846116bf565b95945050505050565b7f4f776e61626c653a2063616c6c6572206973206e6f7420746865206f776e6572600082015250565b6000611a1a6020836117b5565b9150611a25826119e4565b602082019050919050565b60006020820190508181036000830152611a4981611a0d565b9050919050565b7f7a65726f2d62616c616e63650000000000000000000000000000000000000000600082015250565b6000611a86600c836117b5565b9150611a9182611a50565b602082019050919050565b60006020820190508181036000830152611ab581611a79565b9050919050565b7f73616c652d696e2d70726f677265737300000000000000000000000000000000600082015250565b6000611af26010836117b5565b9150611afd82611abc565b602082019050919050565b60006020820190508181036000830152611b2181611ae5565b9050919050565b7f5265656e7472616e637947756172643a207265656e7472616e742063616c6c00600082015250565b6000611b5e601f836117b5565b9150611b6982611b28565b602082019050919050565b60006020820190508181036000830152611b8d81611b51565b9050919050565b7f6e6f6e2d636f6e747269627574696f6e00000000000000000000000000000000600082015250565b6000611bca6010836117b5565b9150611bd582611b94565b602082019050919050565b60006020820190508181036000830152611bf981611bbd565b9050919050565b600081519050611c0f8161171f565b92915050565b600060208284031215611c2b57611c2a611625565b5b6000611c3984828501611c00565b91505092915050565b7f6c61636b206f662066756e647300000000000000000000000000000000000000600082015250565b6000611c78600d836117b5565b9150611c8382611c42565b602082019050919050565b60006020820190508181036000830152611ca781611c6b565b9050919050565b611cb7816116e9565b8114611cc257600080fd5b50565b600081519050611cd481611cae565b92915050565b600060208284031215611cf057611cef611625565b5b6000611cfe84828501611cc5565b91505092915050565b7f7a65726f2d4a4e434b2d62616c616e6365000000000000000000000000000000600082015250565b6000611d3d6011836117b5565b9150611d4882611d07565b602082019050919050565b60006020820190508181036000830152611d6c81611d30565b9050919050565b7f4f776e61626c653a206e6577206f776e657220697320746865207a65726f206160008201527f6464726573730000000000000000000000000000000000000000000000000000602082015250565b6000611dcf6026836117b5565b9150611dda82611d73565b604082019050919050565b60006020820190508181036000830152611dfe81611dc2565b9050919050565b7f4e487b7100000000000000000000000000000000000000000000000000000000600052601160045260246000fd5b6000611e3f826116b5565b9150611e4a836116b5565b9250827fffffffffffffffffffffffffffffffffffffffffffffffffffffffffffffffff03821115611e7f57611e7e611e05565b5b828201905092915050565b6000611e95826116b5565b9150611ea0836116b5565b9250817fffffffffffffffffffffffffffffffffffffffffffffffffffffffffffffffff0483118215151615611ed957611ed8611e05565b5b82820290509291505056fea2646970667358221220f4203b88ab04ad8ee868a7f54a87ac1c16c5fde011edb5c42e93417f5058473664736f6c634300080a0033",
  "immutableReferences": {},
  "source": "// SPDX-License-Identifier: MIT\n\npragma solidity ^0.8.0;\n\nimport \"@openzeppelin/contracts/token/ERC20/utils/SafeERC20.sol\";\nimport \"@openzeppelin/contracts/access/Ownable.sol\";\nimport \"@openzeppelin/contracts/security/ReentrancyGuard.sol\";\nimport \"@openzeppelin/contracts/utils/math/SafeMath.sol\";\n\ncontract Crowdsale is Ownable, ReentrancyGuard {\n    using SafeMath for uint256;\n\tusing SafeERC20 for IERC20;\n\n\tuint256 constant fundingGoal = 805 * (10**18);\n\t/* how much has been raised by crowdale (in BNB) */\n\tuint256 public amountRaised;\n\t/* how much has been raised by crowdale (in JNCK) */\n\tuint256 public amountRaisedJNCK;\n\n\t/* the start & end date of the crowdsale */\n\tuint256 public start;\n\tuint256 public deadline;\n\tuint256 public publishDate;\n\n\t/* there are different prices in different time intervals */\n\tuint256 constant price = 23238;\n\n\t/* the address of the token contract */\n\tIERC20 private tokenReward;\n\t/* the balances (in BNB) of all investors */\n\tmapping(address => uint256) public balanceOf;\n\t/* the balances (in JNCK) of all investors */\n\tmapping(address => uint256) public balanceOfJNCK;\n\t/* indicates if the crowdsale has been closed already */\n\tmapping(address => bool) public whitelist;\n\tbool public saleClosed = false;\n\t/* notifying transfers and the success of the crowdsale*/\n\tevent GoalReached(address beneficiary, uint256 amountRaised);\n\tevent FundTransfer(address backer, uint256 amount, bool isContribution, uint256 amountRaised);\n\n    /*  initialization, set the token address */\n    constructor(IERC20 _token, uint256 _start, uint256 _dead, uint256 _publish) {\n        tokenReward = _token;\n\t\tstart = _start;\n\t\tdeadline = _dead;\n\t\tpublishDate = _publish;\n    }\n\n\tmodifier onlyWhitelisted() {\n        require(whitelist[_msgSender()] == true, \"Caller is not whitelisted\");\n        _;\n    }\n\n\n    /* invest by sending BNB to the contract. */\n    receive () external payable {\n\t\tif(msg.sender != owner()) //do not trigger investment if the multisig wallet is returning the funds\n        \tinvest();\n\t\telse revert();\n    }\n\n\tfunction updateDeadline(uint256 _dead, uint256 _publish) external onlyOwner {\n\t\tdeadline = _dead;\n\t\tpublishDate = _publish;\n\t}\n\n\tfunction checkFunds(address addr) external view returns (uint256) {\n\t\treturn balanceOf[addr];\n\t}\n\n\tfunction checkJNCKFunds(address addr) external view returns (uint256) {\n\t\treturn balanceOfJNCK[addr];\n\t}\n\n\tfunction getBNBBalance() external view returns (uint256) {\n\t\treturn address(this).balance;\n\t}\n\n\tfunction isWhitelisted(address addr) external view returns (bool) {\n\t\treturn whitelist[addr];\n\t}\n\n\tfunction addWhitelisted(address addr) external onlyOwner {\n\t\twhitelist[addr] = true;\n\t}\n\n\tfunction removeWhitelisted(address addr) external onlyOwner {\n\t\twhitelist[addr] = false;\n\t}\n\n    /* make an investment\n    *  only callable if the crowdsale started and hasn't been closed already and the maxGoal wasn't reached yet.\n    *  the current token price is looked up and the corresponding number of tokens is transfered to the receiver.\n    *  the sent value is directly forwarded to a safe multisig wallet.\n    *  this method allows to purchase tokens in behalf of another address.*/\n    function invest() public onlyWhitelisted payable {\n    \tuint256 amount = msg.value;\n\t\trequire(saleClosed == false && block.timestamp >= start && block.timestamp < deadline, \"sale-closed\");\n\t\trequire(msg.value >= 10**17, \"less than 0.1 BNB\");\n\n\t\tbalanceOf[msg.sender] = balanceOf[msg.sender].add(amount);\n\n\t\trequire(balanceOf[msg.sender] <= 5 * 10**18, \"more than 5 BNB\");\n\n\t\tamountRaised = amountRaised.add(amount);\n\n\t\tbalanceOfJNCK[msg.sender] = balanceOfJNCK[msg.sender].add(amount.mul(price));\n\t\tamountRaisedJNCK = amountRaisedJNCK.add(amount.mul(price));\n\n\t\tif (amountRaised >= fundingGoal) {\n\t\t\tsaleClosed = true;\n\t\t\temit GoalReached(msg.sender, amountRaised);\n\t\t}\n\t\t\n        emit FundTransfer(msg.sender, amount, true, amountRaised);\n    }\n\n    modifier afterClosed() {\n        require(block.timestamp >= publishDate, \"sale-in-progress\");\n        _;\n    }\n\n\tfunction getJNCK() external afterClosed nonReentrant {\n\t\trequire(balanceOfJNCK[msg.sender] > 0, \"non-contribution\");\n\t\tuint256 amount = balanceOfJNCK[msg.sender];\n\t\tuint256 balance = tokenReward.balanceOf(address(this));\n\t\trequire(balance >= amount, \"lack of funds\");\n\t\tbalanceOfJNCK[msg.sender] = 0;\n\t\ttokenReward.transfer(msg.sender, amount);\n\t}\n\n\tfunction withdrawBNB() external onlyOwner {\n\t\tuint256 balance = address(this).balance;\n\t\trequire(balance > 0, \"zero-balance\");\n\t\taddress payable payableOwner = payable(owner());\n\t\tpayableOwner.transfer(balance);\n\t}\n\n\tfunction withdrawJNCK() external onlyOwner {\n\t\tuint256 balance = tokenReward.balanceOf(address(this));\n\t\trequire(balance > 0, \"zero-JNCK-balance\");\n\t\ttokenReward.transfer(owner(), balance);\n\t}\n}",
  "sourcePath": "/Users/AQ/Documents/BeKind/JNCK/contracts/Crowdsale.sol",
  "compiler": {
    "name": "solc",
    "version": "0.8.10+commit.fc410830.Emscripten.clang"
  },
  "schemaVersion": "3.4.3",
  "updatedAt": "2021-11-17T05:12:30.018Z",
  "networkType": "ethereum",
  "devdoc": {
    "kind": "dev",
    "methods": {
      "owner()": {
        "details": "Returns the address of the current owner."
      },
      "renounceOwnership()": {
        "details": "Leaves the contract without owner. It will not be possible to call `onlyOwner` functions anymore. Can only be called by the current owner. NOTE: Renouncing ownership will leave the contract without an owner, thereby removing any functionality that is only available to the owner."
      },
      "transferOwnership(address)": {
        "details": "Transfers ownership of the contract to a new account (`newOwner`). Can only be called by the current owner."
      }
    },
    "version": 1
  },
  "userdoc": {
    "kind": "user",
    "methods": {},
    "version": 1
  }
}