{
  "contractName": "Staking",
  "abi": [
    {
      "inputs": [
        {
          "internalType": "contract IERC20",
          "name": "_JNCK",
          "type": "address"
        },
        {
          "internalType": "uint256",
          "name": "_rewardPerBlock",
          "type": "uint256"
        },
        {
          "internalType": "uint256",
          "name": "_startBlock",
          "type": "uint256"
        }
      ],
      "stateMutability": "nonpayable",
      "type": "constructor"
    },
    {
      "anonymous": false,
      "inputs": [
        {
          "indexed": true,
          "internalType": "address",
          "name": "user",
          "type": "address"
        },
        {
          "indexed": true,
          "internalType": "uint256",
          "name": "pid",
          "type": "uint256"
        },
        {
          "indexed": false,
          "internalType": "uint256",
          "name": "amount",
          "type": "uint256"
        }
      ],
      "name": "Deposit",
      "type": "event"
    },
    {
      "anonymous": false,
      "inputs": [
        {
          "indexed": true,
          "internalType": "address",
          "name": "user",
          "type": "address"
        },
        {
          "indexed": true,
          "internalType": "uint256",
          "name": "pid",
          "type": "uint256"
        },
        {
          "indexed": false,
          "internalType": "uint256",
          "name": "amount",
          "type": "uint256"
        }
      ],
      "name": "EmergencyWithdraw",
      "type": "event"
    },
    {
      "anonymous": false,
      "inputs": [
        {
          "indexed": true,
          "internalType": "address",
          "name": "previousOwner",
          "type": "address"
        },
        {
          "indexed": true,
          "internalType": "address",
          "name": "newOwner",
          "type": "address"
        }
      ],
      "name": "OwnershipTransferred",
      "type": "event"
    },
    {
      "anonymous": false,
      "inputs": [
        {
          "indexed": true,
          "internalType": "address",
          "name": "user",
          "type": "address"
        },
        {
          "indexed": true,
          "internalType": "uint256",
          "name": "pid",
          "type": "uint256"
        },
        {
          "indexed": false,
          "internalType": "uint256",
          "name": "amount",
          "type": "uint256"
        }
      ],
      "name": "Withdraw",
      "type": "event"
    },
    {
      "inputs": [],
      "name": "JNCK",
      "outputs": [
        {
          "internalType": "contract IERC20",
          "name": "",
          "type": "address"
        }
      ],
      "stateMutability": "view",
      "type": "function",
      "constant": true
    },
    {
      "inputs": [],
      "name": "endBlock",
      "outputs": [
        {
          "internalType": "uint256",
          "name": "",
          "type": "uint256"
        }
      ],
      "stateMutability": "view",
      "type": "function",
      "constant": true
    },
    {
      "inputs": [],
      "name": "owner",
      "outputs": [
        {
          "internalType": "address",
          "name": "",
          "type": "address"
        }
      ],
      "stateMutability": "view",
      "type": "function",
      "constant": true
    },
    {
      "inputs": [],
      "name": "paidOut",
      "outputs": [
        {
          "internalType": "uint256",
          "name": "",
          "type": "uint256"
        }
      ],
      "stateMutability": "view",
      "type": "function",
      "constant": true
    },
    {
      "inputs": [
        {
          "internalType": "uint256",
          "name": "",
          "type": "uint256"
        }
      ],
      "name": "poolInfo",
      "outputs": [
        {
          "internalType": "contract IERC20",
          "name": "bep20Token",
          "type": "address"
        },
        {
          "internalType": "uint256",
          "name": "allocPoint",
          "type": "uint256"
        },
        {
          "internalType": "uint256",
          "name": "lastRewardBlock",
          "type": "uint256"
        },
        {
          "internalType": "uint256",
          "name": "accERC20PerShare",
          "type": "uint256"
        }
      ],
      "stateMutability": "view",
      "type": "function",
      "constant": true
    },
    {
      "inputs": [],
      "name": "renounceOwnership",
      "outputs": [],
      "stateMutability": "nonpayable",
      "type": "function"
    },
    {
      "inputs": [],
      "name": "rewardPerBlock",
      "outputs": [
        {
          "internalType": "uint256",
          "name": "",
          "type": "uint256"
        }
      ],
      "stateMutability": "view",
      "type": "function",
      "constant": true
    },
    {
      "inputs": [],
      "name": "startBlock",
      "outputs": [
        {
          "internalType": "uint256",
          "name": "",
          "type": "uint256"
        }
      ],
      "stateMutability": "view",
      "type": "function",
      "constant": true
    },
    {
      "inputs": [],
      "name": "totalAllocPoint",
      "outputs": [
        {
          "internalType": "uint256",
          "name": "",
          "type": "uint256"
        }
      ],
      "stateMutability": "view",
      "type": "function",
      "constant": true
    },
    {
      "inputs": [
        {
          "internalType": "address",
          "name": "newOwner",
          "type": "address"
        }
      ],
      "name": "transferOwnership",
      "outputs": [],
      "stateMutability": "nonpayable",
      "type": "function"
    },
    {
      "inputs": [
        {
          "internalType": "uint256",
          "name": "",
          "type": "uint256"
        },
        {
          "internalType": "address",
          "name": "",
          "type": "address"
        }
      ],
      "name": "userInfo",
      "outputs": [
        {
          "internalType": "uint256",
          "name": "amount",
          "type": "uint256"
        },
        {
          "internalType": "uint256",
          "name": "rewardDebt",
          "type": "uint256"
        },
        {
          "internalType": "uint256",
          "name": "timestamp",
          "type": "uint256"
        }
      ],
      "stateMutability": "view",
      "type": "function",
      "constant": true
    },
    {
      "inputs": [],
      "name": "poolLength",
      "outputs": [
        {
          "internalType": "uint256",
          "name": "",
          "type": "uint256"
        }
      ],
      "stateMutability": "view",
      "type": "function",
      "constant": true
    },
    {
      "inputs": [
        {
          "internalType": "uint256",
          "name": "_amount",
          "type": "uint256"
        }
      ],
      "name": "fund",
      "outputs": [],
      "stateMutability": "nonpayable",
      "type": "function"
    },
    {
      "inputs": [
        {
          "internalType": "uint256",
          "name": "_allocPoint",
          "type": "uint256"
        },
        {
          "internalType": "contract IERC20",
          "name": "_bep20Token",
          "type": "address"
        },
        {
          "internalType": "bool",
          "name": "_withUpdate",
          "type": "bool"
        }
      ],
      "name": "add",
      "outputs": [],
      "stateMutability": "nonpayable",
      "type": "function"
    },
    {
      "inputs": [
        {
          "internalType": "uint256",
          "name": "_pid",
          "type": "uint256"
        },
        {
          "internalType": "uint256",
          "name": "_allocPoint",
          "type": "uint256"
        },
        {
          "internalType": "bool",
          "name": "_withUpdate",
          "type": "bool"
        }
      ],
      "name": "set",
      "outputs": [],
      "stateMutability": "nonpayable",
      "type": "function"
    },
    {
      "inputs": [
        {
          "internalType": "uint256",
          "name": "_pid",
          "type": "uint256"
        },
        {
          "internalType": "address",
          "name": "_user",
          "type": "address"
        }
      ],
      "name": "deposited",
      "outputs": [
        {
          "internalType": "uint256",
          "name": "",
          "type": "uint256"
        }
      ],
      "stateMutability": "view",
      "type": "function",
      "constant": true
    },
    {
      "inputs": [
        {
          "internalType": "uint256",
          "name": "_pid",
          "type": "uint256"
        },
        {
          "internalType": "address",
          "name": "_user",
          "type": "address"
        }
      ],
      "name": "pending",
      "outputs": [
        {
          "internalType": "uint256",
          "name": "",
          "type": "uint256"
        }
      ],
      "stateMutability": "view",
      "type": "function",
      "constant": true
    },
    {
      "inputs": [],
      "name": "totalPending",
      "outputs": [
        {
          "internalType": "uint256",
          "name": "",
          "type": "uint256"
        }
      ],
      "stateMutability": "view",
      "type": "function",
      "constant": true
    },
    {
      "inputs": [],
      "name": "massUpdatePools",
      "outputs": [],
      "stateMutability": "nonpayable",
      "type": "function"
    },
    {
      "inputs": [
        {
          "internalType": "uint256",
          "name": "_pid",
          "type": "uint256"
        }
      ],
      "name": "updatePool",
      "outputs": [],
      "stateMutability": "nonpayable",
      "type": "function"
    },
    {
      "inputs": [
        {
          "internalType": "uint256",
          "name": "_pid",
          "type": "uint256"
        },
        {
          "internalType": "uint256",
          "name": "_amount",
          "type": "uint256"
        }
      ],
      "name": "deposit",
      "outputs": [],
      "stateMutability": "nonpayable",
      "type": "function"
    },
    {
      "inputs": [
        {
          "internalType": "uint256",
          "name": "_pid",
          "type": "uint256"
        },
        {
          "internalType": "uint256",
          "name": "_amount",
          "type": "uint256"
        }
      ],
      "name": "withdraw",
      "outputs": [],
      "stateMutability": "nonpayable",
      "type": "function"
    },
    {
      "inputs": [
        {
          "internalType": "uint256",
          "name": "_pid",
          "type": "uint256"
        }
      ],
      "name": "emergencyWithdraw",
      "outputs": [],
      "stateMutability": "nonpayable",
      "type": "function"
    }
  ],
  "bytecode": "0x6080604052600060025560006006553480156200001b57600080fd5b506040516200289638038062002896833981810160405281019062000041919062000245565b6200006162000055620000c060201b60201c565b620000c860201b60201c565b82600160006101000a81548173ffffffffffffffffffffffffffffffffffffffff021916908373ffffffffffffffffffffffffffffffffffffffff160217905550816003819055508060078190555080600881905550505050620002a1565b600033905090565b60008060009054906101000a900473ffffffffffffffffffffffffffffffffffffffff169050816000806101000a81548173ffffffffffffffffffffffffffffffffffffffff021916908373ffffffffffffffffffffffffffffffffffffffff1602179055508173ffffffffffffffffffffffffffffffffffffffff168173ffffffffffffffffffffffffffffffffffffffff167f8be0079c531659141344cd1fd0a4f28419497f9722a3daafe3b4186f6b6457e060405160405180910390a35050565b600080fd5b600073ffffffffffffffffffffffffffffffffffffffff82169050919050565b6000620001be8262000191565b9050919050565b6000620001d282620001b1565b9050919050565b620001e481620001c5565b8114620001f057600080fd5b50565b6000815190506200020481620001d9565b92915050565b6000819050919050565b6200021f816200020a565b81146200022b57600080fd5b50565b6000815190506200023f8162000214565b92915050565b6000806000606084860312156200026157620002606200018c565b5b60006200027186828701620001f3565b935050602062000284868287016200022e565b925050604062000297868287016200022e565b9150509250925092565b6125e580620002b16000396000f3fe608060405234801561001057600080fd5b506004361061014d5760003560e01c80635c76ca2d116100c357806393f1a40b1161007c57806393f1a40b14610333578063a238310614610365578063ca1d209d14610395578063e2bbb158146103b1578063e4c75c27146103cd578063f2fde38b146103fd5761014d565b80635c76ca2d146102a9578063630b5ba1146102c757806364482f79146102d1578063715018a6146102ed5780638ae39cac146102f75780638da5cb5b146103155761014d565b80631eaaa045116101155780631eaaa045146101fd5780633f90916a14610219578063441a3e701461023757806348cd4cb11461025357806351eb05a6146102715780635312ea8e1461028d5761014d565b8063081e3eda14610152578063083c6323146101705780631526fe271461018e57806317caf6f1146101c15780631925129a146101df575b600080fd5b61015a610419565b60405161016791906119e9565b60405180910390f35b610178610426565b60405161018591906119e9565b60405180910390f35b6101a860048036038101906101a39190611a35565b61042c565b6040516101b89493929190611ae1565b60405180910390f35b6101c961048c565b6040516101d691906119e9565b60405180910390f35b6101e7610492565b6040516101f49190611b26565b60405180910390f35b61021760048036038101906102129190611bc9565b6104b8565b005b61022161063e565b60405161022e91906119e9565b60405180910390f35b610251600480360381019061024c9190611c1c565b610698565b005b61025b6108f5565b60405161026891906119e9565b60405180910390f35b61028b60048036038101906102869190611a35565b6108fb565b005b6102a760048036038101906102a29190611a35565b610a97565b005b6102b1610bd0565b6040516102be91906119e9565b60405180910390f35b6102cf610bd6565b005b6102eb60048036038101906102e69190611c5c565b610c09565b005b6102f5610d07565b005b6102ff610d8f565b60405161030c91906119e9565b60405180910390f35b61031d610d95565b60405161032a9190611cbe565b60405180910390f35b61034d60048036038101906103489190611d05565b610dbe565b60405161035c93929190611d45565b60405180910390f35b61037f600480360381019061037a9190611d05565b610df5565b60405161038c91906119e9565b60405180910390f35b6103af60048036038101906103aa9190611a35565b610e58565b005b6103cb60048036038101906103c69190611c1c565b610fe4565b005b6103e760048036038101906103e29190611d05565b6111be565b6040516103f491906119e9565b60405180910390f35b61041760048036038101906104129190611d7c565b6113d2565b005b6000600480549050905090565b60085481565b6004818154811061043c57600080fd5b90600052602060002090600402016000915090508060000160009054906101000a900473ffffffffffffffffffffffffffffffffffffffff16908060010154908060020154908060030154905084565b60065481565b600160009054906101000a900473ffffffffffffffffffffffffffffffffffffffff1681565b6104c06114ca565b73ffffffffffffffffffffffffffffffffffffffff166104de610d95565b73ffffffffffffffffffffffffffffffffffffffff1614610534576040517f08c379a000000000000000000000000000000000000000000000000000000000815260040161052b90611e06565b60405180910390fd5b801561054357610542610bd6565b5b6000600754431161055657600754610558565b435b9050836006546105689190611e55565b600681905550600460405180608001604052808573ffffffffffffffffffffffffffffffffffffffff1681526020018681526020018381526020016000815250908060018154018082558091505060019003906000526020600020906004020160009091909190915060008201518160000160006101000a81548173ffffffffffffffffffffffffffffffffffffffff021916908373ffffffffffffffffffffffffffffffffffffffff160217905550602082015181600101556040820151816002015560608201518160030155505050505050565b600060075443116106525760009050610695565b6000600854431061066557600854610667565b435b90506002546007548261067a9190611eab565b6003546106879190611edf565b6106919190611eab565b9150505b90565b6000600483815481106106ae576106ad611f39565b5b9060005260206000209060040201905060006005600085815260200190815260200160002060003373ffffffffffffffffffffffffffffffffffffffff1673ffffffffffffffffffffffffffffffffffffffff16815260200190815260200160002090508281600001541015610759576040517f08c379a000000000000000000000000000000000000000000000000000000000815260040161075090611fda565b60405180910390fd5b6276a70081600201544261076d9190611eab565b10156107ae576040517f08c379a00000000000000000000000000000000000000000000000000000000081526004016107a590612046565b60405180910390fd5b6107b7846108fb565b600081600101546ec097ce7bc90715b34b9f1000000000846003015484600001546107e29190611edf565b6107ec9190612095565b6107f69190611eab565b905061080233826114d2565b8382600001546108129190611eab565b82600001819055506ec097ce7bc90715b34b9f10000000008360030154836000015461083e9190611edf565b6108489190612095565b826001018190555061089f33858560000160009054906101000a900473ffffffffffffffffffffffffffffffffffffffff1673ffffffffffffffffffffffffffffffffffffffff166115909092919063ffffffff16565b843373ffffffffffffffffffffffffffffffffffffffff167ff279e6a1f5e320cca91135676d9cb6e44ca8a08c0b88342bcdb1144f6511b568866040516108e691906119e9565b60405180910390a35050505050565b60075481565b60006004828154811061091157610910611f39565b5b906000526020600020906004020190506000600854431061093457600854610936565b435b90508160020154811161094a575050610a94565b60008260000160009054906101000a900473ffffffffffffffffffffffffffffffffffffffff1673ffffffffffffffffffffffffffffffffffffffff166370a08231306040518263ffffffff1660e01b81526004016109a99190611cbe565b602060405180830381865afa1580156109c6573d6000803e3d6000fd5b505050506040513d601f19601f820116820180604052508101906109ea91906120db565b90506000811415610a0657818360020181905550505050610a94565b6000836002015483610a189190611eab565b90506000600654856001015460035484610a329190611edf565b610a3c9190611edf565b610a469190612095565b9050826ec097ce7bc90715b34b9f100000000082610a649190611edf565b610a6e9190612095565b8560030154610a7d9190611e55565b856003018190555043856002018190555050505050505b50565b600060048281548110610aad57610aac611f39565b5b9060005260206000209060040201905060006005600084815260200190815260200160002060003373ffffffffffffffffffffffffffffffffffffffff1673ffffffffffffffffffffffffffffffffffffffff1681526020019081526020016000209050610b643382600001548460000160009054906101000a900473ffffffffffffffffffffffffffffffffffffffff1673ffffffffffffffffffffffffffffffffffffffff166115909092919063ffffffff16565b823373ffffffffffffffffffffffffffffffffffffffff167fbb757047c2b5f3974fe26b7c10f732e7bce710b0952a71082702781e62ae05958360000154604051610baf91906119e9565b60405180910390a36000816000018190555060008160010181905550505050565b60025481565b6000600480549050905060005b81811015610c0557610bf4816108fb565b80610bfe90612108565b9050610be3565b5050565b610c116114ca565b73ffffffffffffffffffffffffffffffffffffffff16610c2f610d95565b73ffffffffffffffffffffffffffffffffffffffff1614610c85576040517f08c379a0000000000000000000000000000000000000000000000000000000008152600401610c7c90611e06565b60405180910390fd5b8015610c9457610c93610bd6565b5b8160048481548110610ca957610ca8611f39565b5b906000526020600020906004020160010154600654610cc89190611eab565b610cd29190611e55565b6006819055508160048481548110610ced57610cec611f39565b5b906000526020600020906004020160010181905550505050565b610d0f6114ca565b73ffffffffffffffffffffffffffffffffffffffff16610d2d610d95565b73ffffffffffffffffffffffffffffffffffffffff1614610d83576040517f08c379a0000000000000000000000000000000000000000000000000000000008152600401610d7a90611e06565b60405180910390fd5b610d8d6000611616565b565b60035481565b60008060009054906101000a900473ffffffffffffffffffffffffffffffffffffffff16905090565b6005602052816000526040600020602052806000526040600020600091509150508060000154908060010154908060020154905083565b6000806005600085815260200190815260200160002060008473ffffffffffffffffffffffffffffffffffffffff1673ffffffffffffffffffffffffffffffffffffffff1681526020019081526020016000209050806000015491505092915050565b610e606114ca565b73ffffffffffffffffffffffffffffffffffffffff16610e7e610d95565b73ffffffffffffffffffffffffffffffffffffffff1614610ed4576040517f08c379a0000000000000000000000000000000000000000000000000000000008152600401610ecb90611e06565b60405180910390fd5b6008544310610f18576040517f08c379a0000000000000000000000000000000000000000000000000000000008152600401610f0f906121c3565b60405180910390fd5b600160009054906101000a900473ffffffffffffffffffffffffffffffffffffffff1673ffffffffffffffffffffffffffffffffffffffff166323b872dd3330846040518463ffffffff1660e01b8152600401610f77939291906121e3565b6020604051808303816000875af1158015610f96573d6000803e3d6000fd5b505050506040513d601f19601f82011682018060405250810190610fba919061222f565b5060035481610fc99190612095565b60086000828254610fda9190611e55565b9250508190555050565b600060048381548110610ffa57610ff9611f39565b5b9060005260206000209060040201905060006005600085815260200190815260200160002060003373ffffffffffffffffffffffffffffffffffffffff1673ffffffffffffffffffffffffffffffffffffffff1681526020019081526020016000209050611067846108fb565b6000816000015411156110c157600081600101546ec097ce7bc90715b34b9f10000000008460030154846000015461109f9190611edf565b6110a99190612095565b6110b39190611eab565b90506110bf33826114d2565b505b6111123330858560000160009054906101000a900473ffffffffffffffffffffffffffffffffffffffff1673ffffffffffffffffffffffffffffffffffffffff166116da909392919063ffffffff16565b42816002018190555082816000015461112b9190611e55565b81600001819055506ec097ce7bc90715b34b9f1000000000826003015482600001546111579190611edf565b6111619190612095565b8160010181905550833373ffffffffffffffffffffffffffffffffffffffff167f90890809c654f11d6e72a28fa60149770a0d11ec6c92319d6ceb2bb0a4ea1a15856040516111b091906119e9565b60405180910390a350505050565b600080600484815481106111d5576111d4611f39565b5b9060005260206000209060040201905060006005600086815260200190815260200160002060008573ffffffffffffffffffffffffffffffffffffffff1673ffffffffffffffffffffffffffffffffffffffff168152602001908152602001600020905060008260030154905060008360000160009054906101000a900473ffffffffffffffffffffffffffffffffffffffff1673ffffffffffffffffffffffffffffffffffffffff166370a08231306040518263ffffffff1660e01b81526004016112a19190611cbe565b602060405180830381865afa1580156112be573d6000803e3d6000fd5b505050506040513d601f19601f820116820180604052508101906112e291906120db565b90508360020154431180156112f8575060008114155b1561138d576000600854431061131057600854611312565b435b905060008560020154826113269190611eab565b905060006006548760010154600354846113409190611edf565b61134a9190611edf565b6113549190612095565b9050836ec097ce7bc90715b34b9f1000000000826113729190611edf565b61137c9190612095565b856113879190611e55565b94505050505b82600101546ec097ce7bc90715b34b9f10000000008385600001546113b29190611edf565b6113bc9190612095565b6113c69190611eab565b94505050505092915050565b6113da6114ca565b73ffffffffffffffffffffffffffffffffffffffff166113f8610d95565b73ffffffffffffffffffffffffffffffffffffffff161461144e576040517f08c379a000000000000000000000000000000000000000000000000000000000815260040161144590611e06565b60405180910390fd5b600073ffffffffffffffffffffffffffffffffffffffff168173ffffffffffffffffffffffffffffffffffffffff1614156114be576040517f08c379a00000000000000000000000000000000000000000000000000000000081526004016114b5906122ce565b60405180910390fd5b6114c781611616565b50565b600033905090565b600160009054906101000a900473ffffffffffffffffffffffffffffffffffffffff1673ffffffffffffffffffffffffffffffffffffffff1663a9059cbb83836040518363ffffffff1660e01b815260040161152f9291906122ee565b6020604051808303816000875af115801561154e573d6000803e3d6000fd5b505050506040513d601f19601f82011682018060405250810190611572919061222f565b5080600260008282546115859190611e55565b925050819055505050565b6116118363a9059cbb60e01b84846040516024016115af9291906122ee565b604051602081830303815290604052907bffffffffffffffffffffffffffffffffffffffffffffffffffffffff19166020820180517bffffffffffffffffffffffffffffffffffffffffffffffffffffffff8381831617835250505050611763565b505050565b60008060009054906101000a900473ffffffffffffffffffffffffffffffffffffffff169050816000806101000a81548173ffffffffffffffffffffffffffffffffffffffff021916908373ffffffffffffffffffffffffffffffffffffffff1602179055508173ffffffffffffffffffffffffffffffffffffffff168173ffffffffffffffffffffffffffffffffffffffff167f8be0079c531659141344cd1fd0a4f28419497f9722a3daafe3b4186f6b6457e060405160405180910390a35050565b61175d846323b872dd60e01b8585856040516024016116fb939291906121e3565b604051602081830303815290604052907bffffffffffffffffffffffffffffffffffffffffffffffffffffffff19166020820180517bffffffffffffffffffffffffffffffffffffffffffffffffffffffff8381831617835250505050611763565b50505050565b60006117c5826040518060400160405280602081526020017f5361666545524332303a206c6f772d6c6576656c2063616c6c206661696c65648152508573ffffffffffffffffffffffffffffffffffffffff1661182a9092919063ffffffff16565b905060008151111561182557808060200190518101906117e5919061222f565b611824576040517f08c379a000000000000000000000000000000000000000000000000000000000815260040161181b90612389565b60405180910390fd5b5b505050565b60606118398484600085611842565b90509392505050565b606082471015611887576040517f08c379a000000000000000000000000000000000000000000000000000000000815260040161187e9061241b565b60405180910390fd5b61189085611956565b6118cf576040517f08c379a00000000000000000000000000000000000000000000000000000000081526004016118c690612487565b60405180910390fd5b6000808673ffffffffffffffffffffffffffffffffffffffff1685876040516118f89190612521565b60006040518083038185875af1925050503d8060008114611935576040519150601f19603f3d011682016040523d82523d6000602084013e61193a565b606091505b509150915061194a828286611969565b92505050949350505050565b600080823b905060008111915050919050565b60608315611979578290506119c9565b60008351111561198c5782518084602001fd5b816040517f08c379a00000000000000000000000000000000000000000000000000000000081526004016119c0919061258d565b60405180910390fd5b9392505050565b6000819050919050565b6119e3816119d0565b82525050565b60006020820190506119fe60008301846119da565b92915050565b600080fd5b611a12816119d0565b8114611a1d57600080fd5b50565b600081359050611a2f81611a09565b92915050565b600060208284031215611a4b57611a4a611a04565b5b6000611a5984828501611a20565b91505092915050565b600073ffffffffffffffffffffffffffffffffffffffff82169050919050565b6000819050919050565b6000611aa7611aa2611a9d84611a62565b611a82565b611a62565b9050919050565b6000611ab982611a8c565b9050919050565b6000611acb82611aae565b9050919050565b611adb81611ac0565b82525050565b6000608082019050611af66000830187611ad2565b611b0360208301866119da565b611b1060408301856119da565b611b1d60608301846119da565b95945050505050565b6000602082019050611b3b6000830184611ad2565b92915050565b6000611b4c82611a62565b9050919050565b6000611b5e82611b41565b9050919050565b611b6e81611b53565b8114611b7957600080fd5b50565b600081359050611b8b81611b65565b92915050565b60008115159050919050565b611ba681611b91565b8114611bb157600080fd5b50565b600081359050611bc381611b9d565b92915050565b600080600060608486031215611be257611be1611a04565b5b6000611bf086828701611a20565b9350506020611c0186828701611b7c565b9250506040611c1286828701611bb4565b9150509250925092565b60008060408385031215611c3357611c32611a04565b5b6000611c4185828601611a20565b9250506020611c5285828601611a20565b9150509250929050565b600080600060608486031215611c7557611c74611a04565b5b6000611c8386828701611a20565b9350506020611c9486828701611a20565b9250506040611ca586828701611bb4565b9150509250925092565b611cb881611b41565b82525050565b6000602082019050611cd36000830184611caf565b92915050565b611ce281611b41565b8114611ced57600080fd5b50565b600081359050611cff81611cd9565b92915050565b60008060408385031215611d1c57611d1b611a04565b5b6000611d2a85828601611a20565b9250506020611d3b85828601611cf0565b9150509250929050565b6000606082019050611d5a60008301866119da565b611d6760208301856119da565b611d7460408301846119da565b949350505050565b600060208284031215611d9257611d91611a04565b5b6000611da084828501611cf0565b91505092915050565b600082825260208201905092915050565b7f4f776e61626c653a2063616c6c6572206973206e6f7420746865206f776e6572600082015250565b6000611df0602083611da9565b9150611dfb82611dba565b602082019050919050565b60006020820190508181036000830152611e1f81611de3565b9050919050565b7f4e487b7100000000000000000000000000000000000000000000000000000000600052601160045260246000fd5b6000611e60826119d0565b9150611e6b836119d0565b9250827fffffffffffffffffffffffffffffffffffffffffffffffffffffffffffffffff03821115611ea057611e9f611e26565b5b828201905092915050565b6000611eb6826119d0565b9150611ec1836119d0565b925082821015611ed457611ed3611e26565b5b828203905092915050565b6000611eea826119d0565b9150611ef5836119d0565b9250817fffffffffffffffffffffffffffffffffffffffffffffffffffffffffffffffff0483118215151615611f2e57611f2d611e26565b5b828202905092915050565b7f4e487b7100000000000000000000000000000000000000000000000000000000600052603260045260246000fd5b7f77697468647261773a2063616e2774207769746864726177206d6f726520746860008201527f616e206465706f73697400000000000000000000000000000000000000000000602082015250565b6000611fc4602a83611da9565b9150611fcf82611f68565b604082019050919050565b60006020820190508181036000830152611ff381611fb7565b9050919050565b7f63616e27742077697468647261772077697468696e2039302064617973000000600082015250565b6000612030601d83611da9565b915061203b82611ffa565b602082019050919050565b6000602082019050818103600083015261205f81612023565b9050919050565b7f4e487b7100000000000000000000000000000000000000000000000000000000600052601260045260246000fd5b60006120a0826119d0565b91506120ab836119d0565b9250826120bb576120ba612066565b5b828204905092915050565b6000815190506120d581611a09565b92915050565b6000602082840312156120f1576120f0611a04565b5b60006120ff848285016120c6565b91505092915050565b6000612113826119d0565b91507fffffffffffffffffffffffffffffffffffffffffffffffffffffffffffffffff82141561214657612145611e26565b5b600182019050919050565b7f66756e643a20746f6f206c6174652c20746865207374616b696e67206973206360008201527f6c6f736564000000000000000000000000000000000000000000000000000000602082015250565b60006121ad602583611da9565b91506121b882612151565b604082019050919050565b600060208201905081810360008301526121dc816121a0565b9050919050565b60006060820190506121f86000830186611caf565b6122056020830185611caf565b61221260408301846119da565b949350505050565b60008151905061222981611b9d565b92915050565b60006020828403121561224557612244611a04565b5b60006122538482850161221a565b91505092915050565b7f4f776e61626c653a206e6577206f776e657220697320746865207a65726f206160008201527f6464726573730000000000000000000000000000000000000000000000000000602082015250565b60006122b8602683611da9565b91506122c38261225c565b604082019050919050565b600060208201905081810360008301526122e7816122ab565b9050919050565b60006040820190506123036000830185611caf565b61231060208301846119da565b9392505050565b7f5361666545524332303a204552433230206f7065726174696f6e20646964206e60008201527f6f74207375636365656400000000000000000000000000000000000000000000602082015250565b6000612373602a83611da9565b915061237e82612317565b604082019050919050565b600060208201905081810360008301526123a281612366565b9050919050565b7f416464726573733a20696e73756666696369656e742062616c616e636520666f60008201527f722063616c6c0000000000000000000000000000000000000000000000000000602082015250565b6000612405602683611da9565b9150612410826123a9565b604082019050919050565b60006020820190508181036000830152612434816123f8565b9050919050565b7f416464726573733a2063616c6c20746f206e6f6e2d636f6e7472616374000000600082015250565b6000612471601d83611da9565b915061247c8261243b565b602082019050919050565b600060208201905081810360008301526124a081612464565b9050919050565b600081519050919050565b600081905092915050565b60005b838110156124db5780820151818401526020810190506124c0565b838111156124ea576000848401525b50505050565b60006124fb826124a7565b61250581856124b2565b93506125158185602086016124bd565b80840191505092915050565b600061252d82846124f0565b915081905092915050565b600081519050919050565b6000601f19601f8301169050919050565b600061255f82612538565b6125698185611da9565b93506125798185602086016124bd565b61258281612543565b840191505092915050565b600060208201905081810360008301526125a78184612554565b90509291505056fea2646970667358221220590a0180d8dabf2f17b1023434987d198ec58d7bc4fb887cb27dfe0b8ea2eb7964736f6c634300080a0033",
  "immutableReferences": {},
  "source": "// SPDX-License-Identifier: MIT\n\npragma solidity ^0.8.0;\n\nimport \"@openzeppelin/contracts/token/ERC20/IERC20.sol\";\nimport \"@openzeppelin/contracts/token/ERC20/utils/SafeERC20.sol\";\nimport \"@openzeppelin/contracts/access/Ownable.sol\";\n\n// Staking distributes the JNCK rewards based on staked JNCK to each user.\n\ncontract Staking is Ownable {\n    using SafeERC20 for IERC20;\n\n    // Info of each user.\n    struct UserInfo {\n        uint256 amount;     // How many JNCK tokens the user has provided.\n        uint256 rewardDebt; // Reward debt. See explanation below.\n        uint256 timestamp;\n        //\n        // We do some fancy math here. Basically, any point in time, the amount of BEP20s\n        // entitled to a user but is pending to be distributed is:\n        //\n        //   pending reward = (user.amount * pool.accERC20PerShare) - user.rewardDebt\n        //\n        // Whenever a user deposits or withdraws JNCK tokens to a pool. Here's what happens:\n        //   1. The pool's `accERC20PerShare` (and `lastRewardBlock`) gets updated.\n        //   2. User receives the pending reward sent to his/her address.\n        //   3. User's `amount` gets updated.\n        //   4. User's `rewardDebt` gets updated.\n    }\n\n    // Info of each pool.\n    struct PoolInfo {\n        IERC20 bep20Token;             // Address of BEP20 token contract.\n        uint256 allocPoint;         // How many allocation points assigned to this pool. BEP20s to distribute per block.\n        uint256 lastRewardBlock;    // Last block number that BEP20s distribution occurs.\n        uint256 accERC20PerShare;   // Accumulated BEP20s per share, times 1e36.\n    }\n\n    // Address of the JNCK Token contract.\n    IERC20 public JNCK;\n    // The total amount of JNCK that's paid out as reward.\n    uint256 public paidOut = 0;\n    // JNCK tokens rewarded per block.\n    uint256 public rewardPerBlock;\n\n    // Info of each pool.\n    PoolInfo[] public poolInfo;\n    // Info of each user that stakes BEP20 tokens.\n    mapping (uint256 => mapping (address => UserInfo)) public userInfo;\n    // Total allocation points. Must be the sum of all allocation points in all pools.\n    uint256 public totalAllocPoint = 0;\n\n    // The block number when staking starts.\n    uint256 public startBlock;\n    // The block number when staking ends.\n    uint256 public endBlock;\n\n    event Deposit(address indexed user, uint256 indexed pid, uint256 amount);\n    event Withdraw(address indexed user, uint256 indexed pid, uint256 amount);\n    event EmergencyWithdraw(address indexed user, uint256 indexed pid, uint256 amount);\n\n    constructor(IERC20 _JNCK, uint256 _rewardPerBlock, uint256 _startBlock) {\n        JNCK = _JNCK;\n        rewardPerBlock = _rewardPerBlock;\n        startBlock = _startBlock;\n        endBlock = _startBlock;\n    }\n\n    // Number of staking pools\n    function poolLength() external view returns (uint256) {\n        return poolInfo.length;\n    }\n\n    // Fund the Staking, increase the end block\n    function fund(uint256 _amount) external onlyOwner {\n        require(block.number < endBlock, \"fund: too late, the staking is closed\");\n\n        JNCK.transferFrom(address(msg.sender), address(this), _amount);\n        endBlock += _amount / rewardPerBlock;\n    }\n\n    // Add a new BEP20 to the pool. Can only be called by the owner.\n    // DO NOT add the same BEP20 token more than once. Rewards will be messed up if you do.\n    function add(uint256 _allocPoint, IERC20 _bep20Token, bool _withUpdate) external onlyOwner {\n        if (_withUpdate) {\n            massUpdatePools();\n        }\n        uint256 lastRewardBlock = block.number > startBlock ? block.number : startBlock;\n        totalAllocPoint = totalAllocPoint + _allocPoint;\n        poolInfo.push(PoolInfo({\n            bep20Token: _bep20Token,\n            allocPoint: _allocPoint,\n            lastRewardBlock: lastRewardBlock,\n            accERC20PerShare: 0\n        }));\n    }\n\n    // Update the given pool's BEP20 allocation point. Can only be called by the owner.\n    function set(uint256 _pid, uint256 _allocPoint, bool _withUpdate) external onlyOwner {\n        if (_withUpdate) {\n            massUpdatePools();\n        }\n        totalAllocPoint = totalAllocPoint - poolInfo[_pid].allocPoint + _allocPoint;\n        poolInfo[_pid].allocPoint = _allocPoint;\n    }\n\n    // View function to see deposited BEP20 for a user.\n    function deposited(uint256 _pid, address _user) external view returns (uint256) {\n        UserInfo storage user = userInfo[_pid][_user];\n        return user.amount;\n    }\n\n    // View function to see pending BEP20s for a user.\n    function pending(uint256 _pid, address _user) external view returns (uint256) {\n        PoolInfo storage pool = poolInfo[_pid];\n        UserInfo storage user = userInfo[_pid][_user];\n        uint256 accERC20PerShare = pool.accERC20PerShare;\n        uint256 bep20Supply = pool.bep20Token.balanceOf(address(this));\n\n        if (block.number > pool.lastRewardBlock && bep20Supply != 0) {\n            uint256 lastBlock = block.number < endBlock ? block.number : endBlock;\n            uint256 nrOfBlocks = lastBlock - pool.lastRewardBlock;\n            uint256 erc20Reward = nrOfBlocks * rewardPerBlock * pool.allocPoint / totalAllocPoint;\n            accERC20PerShare = accERC20PerShare + erc20Reward * 1e36 / bep20Supply;\n        }\n\n        return user.amount * accERC20PerShare / 1e36 - user.rewardDebt;\n    }\n\n    // View function for total reward the staking has yet to pay out.\n    function totalPending() external view returns (uint256) {\n        if (block.number <= startBlock) {\n            return 0;\n        }\n\n        uint256 lastBlock = block.number < endBlock ? block.number : endBlock;\n        return rewardPerBlock * (lastBlock - startBlock) - paidOut;\n    }\n\n    // Update reward variables for all pools. Be careful of gas spending!\n    function massUpdatePools() public {\n        uint256 length = poolInfo.length;\n        for (uint256 pid = 0; pid < length; ++pid) {\n            updatePool(pid);\n        }\n    }\n\n    // Update reward variables of the given pool to be up-to-date.\n    function updatePool(uint256 _pid) public {\n        PoolInfo storage pool = poolInfo[_pid];\n        uint256 lastBlock = block.number < endBlock ? block.number : endBlock;\n\n        if (lastBlock <= pool.lastRewardBlock) {\n            return;\n        }\n        uint256 bep20Supply = pool.bep20Token.balanceOf(address(this));\n        if (bep20Supply == 0) {\n            pool.lastRewardBlock = lastBlock;\n            return;\n        }\n\n        uint256 nrOfBlocks = lastBlock - pool.lastRewardBlock;\n        uint256 erc20Reward = nrOfBlocks * rewardPerBlock * pool.allocPoint / totalAllocPoint;\n\n        pool.accERC20PerShare = pool.accERC20PerShare + erc20Reward * 1e36 / bep20Supply;\n        pool.lastRewardBlock = block.number;\n    }\n\n    // Deposit BEP20 tokens to Staking for BEP20 allocation.\n    function deposit(uint256 _pid, uint256 _amount) external {\n        PoolInfo storage pool = poolInfo[_pid];\n        UserInfo storage user = userInfo[_pid][msg.sender];\n        updatePool(_pid);\n        if (user.amount > 0) {\n            uint256 pendingAmount = user.amount * pool.accERC20PerShare / 1e36 - user.rewardDebt;\n            JNCKTransfer(msg.sender, pendingAmount);\n        }\n        pool.bep20Token.safeTransferFrom(address(msg.sender), address(this), _amount);\n        user.timestamp = block.timestamp;\n        user.amount = user.amount + _amount;\n        user.rewardDebt = user.amount * pool.accERC20PerShare / 1e36;\n        emit Deposit(msg.sender, _pid, _amount);\n    }\n\n    // Withdraw BEP20 tokens from Staking.\n    function withdraw(uint256 _pid, uint256 _amount) external {\n        PoolInfo storage pool = poolInfo[_pid];\n        UserInfo storage user = userInfo[_pid][msg.sender];\n        require(user.amount >= _amount, \"withdraw: can't withdraw more than deposit\");\n        require(block.timestamp - user.timestamp >= 7776000, \"can't withdraw within 90 days\");\n        updatePool(_pid);\n        uint256 pendingAmount = user.amount * pool.accERC20PerShare / 1e36 - user.rewardDebt;\n        JNCKTransfer(msg.sender, pendingAmount);\n        user.amount = user.amount - _amount;\n        user.rewardDebt = user.amount * pool.accERC20PerShare / 1e36;\n        pool.bep20Token.safeTransfer(address(msg.sender), _amount);\n        emit Withdraw(msg.sender, _pid, _amount);\n    }\n\n    // Withdraw without caring about rewards. EMERGENCY ONLY.\n    function emergencyWithdraw(uint256 _pid) external {\n        PoolInfo storage pool = poolInfo[_pid];\n        UserInfo storage user = userInfo[_pid][msg.sender];\n        pool.bep20Token.safeTransfer(address(msg.sender), user.amount);\n        emit EmergencyWithdraw(msg.sender, _pid, user.amount);\n        user.amount = 0;\n        user.rewardDebt = 0;\n    }\n\n    // Transfer JNCK and update the required JNCK to payout all rewards\n    function JNCKTransfer(address _to, uint256 _amount) internal {\n        JNCK.transfer(_to, _amount);\n        paidOut += _amount;\n    }\n\n}\n",
  "sourcePath": "/Users/AQ/Documents/BeKind/JNCK/contracts/Staking.sol",
  "compiler": {
    "name": "solc",
    "version": "0.8.10+commit.fc410830.Emscripten.clang"
  },
  "schemaVersion": "3.4.3",
  "updatedAt": "2021-11-17T05:12:34.385Z",
  "networkType": "ethereum",
  "devdoc": {
    "kind": "dev",
    "methods": {
      "owner()": {
        "details": "Returns the address of the current owner."
      },
      "renounceOwnership()": {
        "details": "Leaves the contract without owner. It will not be possible to call `onlyOwner` functions anymore. Can only be called by the current owner. NOTE: Renouncing ownership will leave the contract without an owner, thereby removing any functionality that is only available to the owner."
      },
      "transferOwnership(address)": {
        "details": "Transfers ownership of the contract to a new account (`newOwner`). Can only be called by the current owner."
      }
    },
    "version": 1
  },
  "userdoc": {
    "kind": "user",
    "methods": {},
    "version": 1
  }
}