{
  "contractName": "TokenVestingFactory",
  "abi": [
    {
      "anonymous": false,
      "inputs": [
        {
          "indexed": false,
          "internalType": "address",
          "name": "instantiation",
          "type": "address"
        },
        {
          "indexed": false,
          "internalType": "address",
          "name": "beneficiary",
          "type": "address"
        }
      ],
      "name": "ContractInstantiation",
      "type": "event"
    },
    {
      "inputs": [
        {
          "internalType": "address",
          "name": "",
          "type": "address"
        }
      ],
      "name": "isInstantiation",
      "outputs": [
        {
          "internalType": "bool",
          "name": "",
          "type": "bool"
        }
      ],
      "stateMutability": "view",
      "type": "function",
      "constant": true
    },
    {
      "inputs": [
        {
          "internalType": "address",
          "name": "",
          "type": "address"
        }
      ],
      "name": "vestingAddress",
      "outputs": [
        {
          "internalType": "address",
          "name": "",
          "type": "address"
        }
      ],
      "stateMutability": "view",
      "type": "function",
      "constant": true
    },
    {
      "inputs": [],
      "name": "getVestingAddress",
      "outputs": [
        {
          "internalType": "address",
          "name": "",
          "type": "address"
        }
      ],
      "stateMutability": "view",
      "type": "function",
      "constant": true
    },
    {
      "inputs": [
        {
          "internalType": "address",
          "name": "_beneficiary",
          "type": "address"
        },
        {
          "internalType": "uint256",
          "name": "_t0",
          "type": "uint256"
        },
        {
          "internalType": "uint256",
          "name": "_t1",
          "type": "uint256"
        },
        {
          "internalType": "uint256",
          "name": "_initialAmount",
          "type": "uint256"
        },
        {
          "internalType": "uint256",
          "name": "_duration",
          "type": "uint256"
        }
      ],
      "name": "create",
      "outputs": [
        {
          "internalType": "address",
          "name": "contractAddress",
          "type": "address"
        }
      ],
      "stateMutability": "nonpayable",
      "type": "function"
    }
  ],
  "bytecode": "0x608060405234801561001057600080fd5b50612424806100206000396000f3fe60806040523480156200001157600080fd5b5060043610620000525760003560e01c80632f4f331614620000575780632f5deafe146200008d578063f9b6b0c414620000c3578063ff1764a414620000f9575b600080fd5b6200007560048036038101906200006f91906200048d565b6200011b565b604051620000849190620004dc565b60405180910390f35b620000ab6004803603810190620000a591906200048d565b6200013b565b604051620000ba91906200050a565b60405180910390f35b620000e16004803603810190620000db919062000562565b6200016e565b604051620000f091906200050a565b60405180910390f35b620001036200029a565b6040516200011291906200050a565b60405180910390f35b60006020528060005260406000206000915054906101000a900460ff1681565b60016020528060005260406000206000915054906101000a900473ffffffffffffffffffffffffffffffffffffffff1681565b60008073ffffffffffffffffffffffffffffffffffffffff16600160008873ffffffffffffffffffffffffffffffffffffffff1673ffffffffffffffffffffffffffffffffffffffff16815260200190815260200160002060009054906101000a900473ffffffffffffffffffffffffffffffffffffffff1673ffffffffffffffffffffffffffffffffffffffff161462000240576040517f08c379a0000000000000000000000000000000000000000000000000000000008152600401620002379062000671565b60405180910390fd5b858585858533604051620002549062000415565b6200026596959493929190620006a4565b604051809103906000f08015801562000282573d6000803e3d6000fd5b50905062000291818762000301565b95945050505050565b6000600160003373ffffffffffffffffffffffffffffffffffffffff1673ffffffffffffffffffffffffffffffffffffffff16815260200190815260200160002060009054906101000a900473ffffffffffffffffffffffffffffffffffffffff16905090565b60016000808473ffffffffffffffffffffffffffffffffffffffff1673ffffffffffffffffffffffffffffffffffffffff16815260200190815260200160002060006101000a81548160ff02191690831515021790555081600160008373ffffffffffffffffffffffffffffffffffffffff1673ffffffffffffffffffffffffffffffffffffffff16815260200190815260200160002060006101000a81548173ffffffffffffffffffffffffffffffffffffffff021916908373ffffffffffffffffffffffffffffffffffffffff1602179055507f4fb057ad4a26ed17a57957fa69c306f11987596069b89521c511fc9a894e616182826040516200040992919062000711565b60405180910390a15050565b611cb0806200073f83390190565b600080fd5b600073ffffffffffffffffffffffffffffffffffffffff82169050919050565b6000620004558262000428565b9050919050565b620004678162000448565b81146200047357600080fd5b50565b60008135905062000487816200045c565b92915050565b600060208284031215620004a657620004a562000423565b5b6000620004b68482850162000476565b91505092915050565b60008115159050919050565b620004d681620004bf565b82525050565b6000602082019050620004f36000830184620004cb565b92915050565b620005048162000448565b82525050565b6000602082019050620005216000830184620004f9565b92915050565b6000819050919050565b6200053c8162000527565b81146200054857600080fd5b50565b6000813590506200055c8162000531565b92915050565b600080600080600060a0868803121562000581576200058062000423565b5b6000620005918882890162000476565b9550506020620005a4888289016200054b565b9450506040620005b7888289016200054b565b9350506060620005ca888289016200054b565b9250506080620005dd888289016200054b565b9150509295509295909350565b600082825260208201905092915050565b7f42656e656669636961727920616c72656164792068617320612076657374696e60008201527f6720636f6e747261637421000000000000000000000000000000000000000000602082015250565b600062000659602b83620005ea565b91506200066682620005fb565b604082019050919050565b600060208201905081810360008301526200068c816200064a565b9050919050565b6200069e8162000527565b82525050565b600060c082019050620006bb6000830189620004f9565b620006ca602083018862000693565b620006d9604083018762000693565b620006e8606083018662000693565b620006f7608083018562000693565b6200070660a0830184620004f9565b979650505050505050565b6000604082019050620007286000830185620004f9565b620007376020830184620004f9565b939250505056fe60806040523480156200001157600080fd5b5060405162001cb038038062001cb08339818101604052810190620000379190620004d2565b620000576200004b6200022260201b60201c565b6200022a60201b60201c565b600073ffffffffffffffffffffffffffffffffffffffff168673ffffffffffffffffffffffffffffffffffffffff161415620000ca576040517f08c379a0000000000000000000000000000000000000000000000000000000008152600401620000c190620005f5565b60405180910390fd5b8385111562000110576040517f08c379a000000000000000000000000000000000000000000000000000000000815260040162000107906200068d565b60405180910390fd5b6000821162000156576040517f08c379a00000000000000000000000000000000000000000000000000000000081526004016200014d90620006ff565b60405180910390fd5b42828562000165919062000750565b11620001a8576040517f08c379a00000000000000000000000000000000000000000000000000000000081526004016200019f9062000823565b60405180910390fd5b8260058190555085600160006101000a81548173ffffffffffffffffffffffffffffffffffffffff021916908373ffffffffffffffffffffffffffffffffffffffff1602179055508160048190555084600281905550836003819055506200021681620002ee60201b60201c565b5050505050506200094f565b600033905090565b60008060009054906101000a900473ffffffffffffffffffffffffffffffffffffffff169050816000806101000a81548173ffffffffffffffffffffffffffffffffffffffff021916908373ffffffffffffffffffffffffffffffffffffffff1602179055508173ffffffffffffffffffffffffffffffffffffffff168173ffffffffffffffffffffffffffffffffffffffff167f8be0079c531659141344cd1fd0a4f28419497f9722a3daafe3b4186f6b6457e060405160405180910390a35050565b620002fe6200022260201b60201c565b73ffffffffffffffffffffffffffffffffffffffff16620003246200040460201b60201c565b73ffffffffffffffffffffffffffffffffffffffff16146200037d576040517f08c379a0000000000000000000000000000000000000000000000000000000008152600401620003749062000895565b60405180910390fd5b600073ffffffffffffffffffffffffffffffffffffffff168173ffffffffffffffffffffffffffffffffffffffff161415620003f0576040517f08c379a0000000000000000000000000000000000000000000000000000000008152600401620003e7906200092d565b60405180910390fd5b62000401816200022a60201b60201c565b50565b60008060009054906101000a900473ffffffffffffffffffffffffffffffffffffffff16905090565b600080fd5b600073ffffffffffffffffffffffffffffffffffffffff82169050919050565b60006200045f8262000432565b9050919050565b620004718162000452565b81146200047d57600080fd5b50565b600081519050620004918162000466565b92915050565b6000819050919050565b620004ac8162000497565b8114620004b857600080fd5b50565b600081519050620004cc81620004a1565b92915050565b60008060008060008060c08789031215620004f257620004f16200042d565b5b60006200050289828a0162000480565b96505060206200051589828a01620004bb565b95505060406200052889828a01620004bb565b94505060606200053b89828a01620004bb565b93505060806200054e89828a01620004bb565b92505060a06200056189828a0162000480565b9150509295509295509295565b600082825260208201905092915050565b7f546f6b656e56657374696e673a2062656e65666963696172792069732074686560008201527f207a65726f206164647265737300000000000000000000000000000000000000602082015250565b6000620005dd602d836200056e565b9150620005ea826200057f565b604082019050919050565b600060208201905081810360008301526200061081620005ce565b9050919050565b7f546f6b656e56657374696e673a20743020697320626967676572207468616e2060008201527f7431000000000000000000000000000000000000000000000000000000000000602082015250565b6000620006756022836200056e565b9150620006828262000617565b604082019050919050565b60006020820190508181036000830152620006a88162000666565b9050919050565b7f546f6b656e56657374696e673a206475726174696f6e20697320300000000000600082015250565b6000620006e7601b836200056e565b9150620006f482620006af565b602082019050919050565b600060208201905081810360008301526200071a81620006d8565b9050919050565b7f4e487b7100000000000000000000000000000000000000000000000000000000600052601160045260246000fd5b60006200075d8262000497565b91506200076a8362000497565b9250827fffffffffffffffffffffffffffffffffffffffffffffffffffffffffffffffff03821115620007a257620007a162000721565b5b828201905092915050565b7f546f6b656e56657374696e673a2066696e616c2074696d65206973206265666f60008201527f72652063757272656e742074696d650000000000000000000000000000000000602082015250565b60006200080b602f836200056e565b91506200081882620007ad565b604082019050919050565b600060208201905081810360008301526200083e81620007fc565b9050919050565b7f4f776e61626c653a2063616c6c6572206973206e6f7420746865206f776e6572600082015250565b60006200087d6020836200056e565b91506200088a8262000845565b602082019050919050565b60006020820190508181036000830152620008b0816200086e565b9050919050565b7f4f776e61626c653a206e6577206f776e657220697320746865207a65726f206160008201527f6464726573730000000000000000000000000000000000000000000000000000602082015250565b6000620009156026836200056e565b91506200092282620008b7565b604082019050919050565b60006020820190508181036000830152620009488162000906565b9050919050565b611351806200095f6000396000f3fe608060405234801561001057600080fd5b50600436106100a95760003560e01c8063ad2e8c9b11610071578063ad2e8c9b1461012e578063b4d11f351461014c578063ce6210141461017c578063d5a73fdd1461019a578063f2fde38b146101ca578063fbc81fc8146101e6576100a9565b806319165587146100ae578063396e5d10146100ca578063565a2e2c146100e8578063715018a6146101065780638da5cb5b14610110575b600080fd5b6100c860048036038101906100c39190610bca565b610204565b005b6100d261036c565b6040516100df9190610c10565b60405180910390f35b6100f0610376565b6040516100fd9190610c3a565b60405180910390f35b61010e6103a0565b005b610118610428565b6040516101259190610c3a565b60405180910390f35b610136610451565b6040516101439190610c10565b60405180910390f35b61016660048036038101906101619190610c81565b61045b565b6040516101739190610c10565b60405180910390f35b6101846104a4565b6040516101919190610c10565b60405180910390f35b6101b460048036038101906101af9190610bca565b6104ae565b6040516101c19190610c10565b60405180910390f35b6101e460048036038101906101df9190610c81565b6104c0565b005b6101ee6105b8565b6040516101fb9190610c10565b60405180910390f35b600061020f826105c2565b905060008111610254576040517f08c379a000000000000000000000000000000000000000000000000000000000815260040161024b90610d0b565b60405180910390fd5b80600660008473ffffffffffffffffffffffffffffffffffffffff1673ffffffffffffffffffffffffffffffffffffffff1681526020019081526020016000205461029f9190610d5a565b600660008473ffffffffffffffffffffffffffffffffffffffff1673ffffffffffffffffffffffffffffffffffffffff1681526020019081526020016000208190555061032f600160009054906101000a900473ffffffffffffffffffffffffffffffffffffffff16828473ffffffffffffffffffffffffffffffffffffffff1661061e9092919063ffffffff16565b7fc7798891864187665ac6dd119286e44ec13f014527aeeb2b8eb3fd413df931798282604051610360929190610db0565b60405180910390a15050565b6000600554905090565b6000600160009054906101000a900473ffffffffffffffffffffffffffffffffffffffff16905090565b6103a86106a4565b73ffffffffffffffffffffffffffffffffffffffff166103c6610428565b73ffffffffffffffffffffffffffffffffffffffff161461041c576040517f08c379a000000000000000000000000000000000000000000000000000000000815260040161041390610e25565b60405180910390fd5b61042660006106ac565b565b60008060009054906101000a900473ffffffffffffffffffffffffffffffffffffffff16905090565b6000600454905090565b6000600660008373ffffffffffffffffffffffffffffffffffffffff1673ffffffffffffffffffffffffffffffffffffffff168152602001908152602001600020549050919050565b6000600354905090565b60006104b982610770565b9050919050565b6104c86106a4565b73ffffffffffffffffffffffffffffffffffffffff166104e6610428565b73ffffffffffffffffffffffffffffffffffffffff161461053c576040517f08c379a000000000000000000000000000000000000000000000000000000000815260040161053390610e25565b60405180910390fd5b600073ffffffffffffffffffffffffffffffffffffffff168173ffffffffffffffffffffffffffffffffffffffff1614156105ac576040517f08c379a00000000000000000000000000000000000000000000000000000000081526004016105a390610eb7565b60405180910390fd5b6105b5816106ac565b50565b6000600254905090565b6000600660008373ffffffffffffffffffffffffffffffffffffffff1673ffffffffffffffffffffffffffffffffffffffff1681526020019081526020016000205461060d83610770565b6106179190610ed7565b9050919050565b61069f8363a9059cbb60e01b848460405160240161063d929190610db0565b604051602081830303815290604052907bffffffffffffffffffffffffffffffffffffffffffffffffffffffff19166020820180517bffffffffffffffffffffffffffffffffffffffffffffffffffffffff83818316178352505050506108e8565b505050565b600033905090565b60008060009054906101000a900473ffffffffffffffffffffffffffffffffffffffff169050816000806101000a81548173ffffffffffffffffffffffffffffffffffffffff021916908373ffffffffffffffffffffffffffffffffffffffff1602179055508173ffffffffffffffffffffffffffffffffffffffff168173ffffffffffffffffffffffffffffffffffffffff167f8be0079c531659141344cd1fd0a4f28419497f9722a3daafe3b4186f6b6457e060405160405180910390a35050565b6000808273ffffffffffffffffffffffffffffffffffffffff166370a08231306040518263ffffffff1660e01b81526004016107ac9190610c3a565b602060405180830381865afa1580156107c9573d6000803e3d6000fd5b505050506040513d601f19601f820116820180604052508101906107ed9190610f37565b90506000600660008573ffffffffffffffffffffffffffffffffffffffff1673ffffffffffffffffffffffffffffffffffffffff168152602001908152602001600020548261083c9190610d5a565b9050600254421015610853576000925050506108e3565b6002544210158015610866575060035442105b1561087757600554925050506108e3565b6004546003546108879190610d5a565b4211156108985780925050506108e3565b6000600554826108a89190610ed7565b9050600454600354426108bb9190610ed7565b826108c69190610f64565b6108d09190610fed565b6005546108dd9190610d5a565b93505050505b919050565b600061094a826040518060400160405280602081526020017f5361666545524332303a206c6f772d6c6576656c2063616c6c206661696c65648152508573ffffffffffffffffffffffffffffffffffffffff166109af9092919063ffffffff16565b90506000815111156109aa578080602001905181019061096a9190611056565b6109a9576040517f08c379a00000000000000000000000000000000000000000000000000000000081526004016109a0906110f5565b60405180910390fd5b5b505050565b60606109be84846000856109c7565b90509392505050565b606082471015610a0c576040517f08c379a0000000000000000000000000000000000000000000000000000000008152600401610a0390611187565b60405180910390fd5b610a1585610adb565b610a54576040517f08c379a0000000000000000000000000000000000000000000000000000000008152600401610a4b906111f3565b60405180910390fd5b6000808673ffffffffffffffffffffffffffffffffffffffff168587604051610a7d919061128d565b60006040518083038185875af1925050503d8060008114610aba576040519150601f19603f3d011682016040523d82523d6000602084013e610abf565b606091505b5091509150610acf828286610aee565b92505050949350505050565b600080823b905060008111915050919050565b60608315610afe57829050610b4e565b600083511115610b115782518084602001fd5b816040517f08c379a0000000000000000000000000000000000000000000000000000000008152600401610b4591906112f9565b60405180910390fd5b9392505050565b600080fd5b600073ffffffffffffffffffffffffffffffffffffffff82169050919050565b6000610b8582610b5a565b9050919050565b6000610b9782610b7a565b9050919050565b610ba781610b8c565b8114610bb257600080fd5b50565b600081359050610bc481610b9e565b92915050565b600060208284031215610be057610bdf610b55565b5b6000610bee84828501610bb5565b91505092915050565b6000819050919050565b610c0a81610bf7565b82525050565b6000602082019050610c256000830184610c01565b92915050565b610c3481610b7a565b82525050565b6000602082019050610c4f6000830184610c2b565b92915050565b610c5e81610b7a565b8114610c6957600080fd5b50565b600081359050610c7b81610c55565b92915050565b600060208284031215610c9757610c96610b55565b5b6000610ca584828501610c6c565b91505092915050565b600082825260208201905092915050565b7f546f6b656e56657374696e673a206e6f20746f6b656e73206172652064756500600082015250565b6000610cf5601f83610cae565b9150610d0082610cbf565b602082019050919050565b60006020820190508181036000830152610d2481610ce8565b9050919050565b7f4e487b7100000000000000000000000000000000000000000000000000000000600052601160045260246000fd5b6000610d6582610bf7565b9150610d7083610bf7565b9250827fffffffffffffffffffffffffffffffffffffffffffffffffffffffffffffffff03821115610da557610da4610d2b565b5b828201905092915050565b6000604082019050610dc56000830185610c2b565b610dd26020830184610c01565b9392505050565b7f4f776e61626c653a2063616c6c6572206973206e6f7420746865206f776e6572600082015250565b6000610e0f602083610cae565b9150610e1a82610dd9565b602082019050919050565b60006020820190508181036000830152610e3e81610e02565b9050919050565b7f4f776e61626c653a206e6577206f776e657220697320746865207a65726f206160008201527f6464726573730000000000000000000000000000000000000000000000000000602082015250565b6000610ea1602683610cae565b9150610eac82610e45565b604082019050919050565b60006020820190508181036000830152610ed081610e94565b9050919050565b6000610ee282610bf7565b9150610eed83610bf7565b925082821015610f0057610eff610d2b565b5b828203905092915050565b610f1481610bf7565b8114610f1f57600080fd5b50565b600081519050610f3181610f0b565b92915050565b600060208284031215610f4d57610f4c610b55565b5b6000610f5b84828501610f22565b91505092915050565b6000610f6f82610bf7565b9150610f7a83610bf7565b9250817fffffffffffffffffffffffffffffffffffffffffffffffffffffffffffffffff0483118215151615610fb357610fb2610d2b565b5b828202905092915050565b7f4e487b7100000000000000000000000000000000000000000000000000000000600052601260045260246000fd5b6000610ff882610bf7565b915061100383610bf7565b92508261101357611012610fbe565b5b828204905092915050565b60008115159050919050565b6110338161101e565b811461103e57600080fd5b50565b6000815190506110508161102a565b92915050565b60006020828403121561106c5761106b610b55565b5b600061107a84828501611041565b91505092915050565b7f5361666545524332303a204552433230206f7065726174696f6e20646964206e60008201527f6f74207375636365656400000000000000000000000000000000000000000000602082015250565b60006110df602a83610cae565b91506110ea82611083565b604082019050919050565b6000602082019050818103600083015261110e816110d2565b9050919050565b7f416464726573733a20696e73756666696369656e742062616c616e636520666f60008201527f722063616c6c0000000000000000000000000000000000000000000000000000602082015250565b6000611171602683610cae565b915061117c82611115565b604082019050919050565b600060208201905081810360008301526111a081611164565b9050919050565b7f416464726573733a2063616c6c20746f206e6f6e2d636f6e7472616374000000600082015250565b60006111dd601d83610cae565b91506111e8826111a7565b602082019050919050565b6000602082019050818103600083015261120c816111d0565b9050919050565b600081519050919050565b600081905092915050565b60005b8381101561124757808201518184015260208101905061122c565b83811115611256576000848401525b50505050565b600061126782611213565b611271818561121e565b9350611281818560208601611229565b80840191505092915050565b6000611299828461125c565b915081905092915050565b600081519050919050565b6000601f19601f8301169050919050565b60006112cb826112a4565b6112d58185610cae565b93506112e5818560208601611229565b6112ee816112af565b840191505092915050565b6000602082019050818103600083015261131381846112c0565b90509291505056fea26469706673582212200154272fe4dbc3faf26811a372de8390d8f8510a2ba7bb28e21eba522d3abd0164736f6c634300080a0033a264697066735822122079bea5b828530859f58ba6c488c2440488f7f6de616b287cd66ef051fc85ef9c64736f6c634300080a0033",
  "immutableReferences": {},
  "source": "// SPDX-License-Identifier: UNLICENSED\npragma solidity ^0.8.3;\n\nimport './TokenVesting.sol';\n\ncontract TokenVestingFactory {\n  /*\n   *  Events\n   */\n  event ContractInstantiation(address instantiation, address beneficiary);\n\n  /*\n   *  Storage\n   */\n  mapping(address => bool) public isInstantiation;\n  mapping(address => address) public vestingAddress;\n\n  /// @dev Returns address of vesting contract\n  /// @return Returns address of vesting contract\n  function getVestingAddress() external view returns (address) {\n    return vestingAddress[msg.sender];\n  }\n\n  /*\n   * Internal functions\n   */\n  /// @dev Registers contract in factory registry.\n  /// @param instantiation Address of contract instantiation.\n  function register(address instantiation, address beneficiary) internal {\n    isInstantiation[instantiation] = true;\n    vestingAddress[beneficiary] = instantiation;\n    emit ContractInstantiation(instantiation, beneficiary);\n  }\n\n  /*\n   * Public functions\n   */\n  /// @dev Allows verified creation of Token Vesting Contract\n  /// Returns wallet address.\n  function create(\n    address _beneficiary,\n    uint256 _t0,\n    uint256 _t1,\n    uint256 _initialAmount,\n    uint256 _duration\n  ) external returns (address contractAddress) {\n    require(\n      vestingAddress[_beneficiary] == address(0),\n      'Beneficiary already has a vesting contract!'\n    );\n\n    contractAddress = address(\n      new TokenVesting(\n        _beneficiary,\n        _t0,\n        _t1,\n        _initialAmount,\n        _duration,\n        msg.sender\n      )\n    );\n\n    register(contractAddress, _beneficiary);\n  }\n}\n",
  "sourcePath": "/Users/AQ/Documents/BeKind/JNCK/contracts/TokenVestingFactory.sol",
  "compiler": {
    "name": "solc",
    "version": "0.8.10+commit.fc410830.Emscripten.clang"
  },
  "schemaVersion": "3.4.3",
  "updatedAt": "2021-11-17T05:12:30.011Z",
  "networkType": "ethereum",
  "devdoc": {
    "kind": "dev",
    "methods": {
      "create(address,uint256,uint256,uint256,uint256)": {
        "details": "Allows verified creation of Token Vesting Contract Returns wallet address."
      },
      "getVestingAddress()": {
        "details": "Returns address of vesting contract",
        "returns": {
          "_0": "Returns address of vesting contract"
        }
      }
    },
    "version": 1
  },
  "userdoc": {
    "kind": "user",
    "methods": {},
    "version": 1
  }
}